{
  "contractName": "CropInsurance",
  "abi": [
    {
      "constant": true,
      "inputs": [
        {
          "name": "",
          "type": "address"
        }
      ],
      "name": "permissions",
      "outputs": [
        {
          "name": "",
          "type": "uint256"
        }
      ],
      "payable": false,
      "stateMutability": "view",
      "type": "function"
    },
    {
      "constant": true,
      "inputs": [],
      "name": "POLICY_FLOW",
      "outputs": [
        {
          "name": "",
          "type": "bytes32"
        }
      ],
      "payable": false,
      "stateMutability": "view",
      "type": "function"
    },
    {
      "constant": true,
      "inputs": [],
      "name": "maintenanceMode",
      "outputs": [
        {
          "name": "",
          "type": "bool"
        }
      ],
      "payable": false,
      "stateMutability": "view",
      "type": "function"
    },
    {
      "constant": true,
      "inputs": [
        {
          "name": "",
          "type": "uint256"
        }
      ],
      "name": "rolesKeys",
      "outputs": [
        {
          "name": "",
          "type": "bytes32"
        }
      ],
      "payable": false,
      "stateMutability": "view",
      "type": "function"
    },
    {
      "constant": false,
      "inputs": [],
      "name": "renounceOwnership",
      "outputs": [],
      "payable": false,
      "stateMutability": "nonpayable",
      "type": "function"
    },
    {
      "constant": true,
      "inputs": [
        {
          "name": "",
          "type": "bytes32"
        }
      ],
      "name": "risks",
      "outputs": [
        {
          "name": "crop",
          "type": "bytes32"
        },
        {
          "name": "wsid",
          "type": "bytes32"
        },
        {
          "name": "year",
          "type": "uint256"
        }
      ],
      "payable": false,
      "stateMutability": "view",
      "type": "function"
    },
    {
      "constant": true,
      "inputs": [],
      "name": "owner",
      "outputs": [
        {
          "name": "",
          "type": "address"
        }
      ],
      "payable": false,
      "stateMutability": "view",
      "type": "function"
    },
    {
      "constant": true,
      "inputs": [],
      "name": "isOwner",
      "outputs": [
        {
          "name": "",
          "type": "bool"
        }
      ],
      "payable": false,
      "stateMutability": "view",
      "type": "function"
    },
    {
      "constant": true,
      "inputs": [
        {
          "name": "",
          "type": "bytes32"
        }
      ],
      "name": "roles",
      "outputs": [
        {
          "name": "",
          "type": "uint256"
        }
      ],
      "payable": false,
      "stateMutability": "view",
      "type": "function"
    },
    {
      "constant": true,
      "inputs": [],
      "name": "NAME",
      "outputs": [
        {
          "name": "",
          "type": "bytes32"
        }
      ],
      "payable": false,
      "stateMutability": "view",
      "type": "function"
    },
    {
      "constant": true,
      "inputs": [
        {
          "name": "_address",
          "type": "address"
        },
        {
          "name": "_role",
          "type": "bytes32"
        }
      ],
      "name": "hasRole",
      "outputs": [
        {
          "name": "_hasRole",
          "type": "bool"
        }
      ],
      "payable": false,
      "stateMutability": "view",
      "type": "function"
    },
    {
      "constant": false,
      "inputs": [
        {
          "name": "_address",
          "type": "address"
        },
        {
          "name": "_role",
          "type": "bytes32"
        }
      ],
      "name": "addRoleToAccount",
      "outputs": [],
      "payable": false,
      "stateMutability": "nonpayable",
      "type": "function"
    },
    {
      "constant": true,
      "inputs": [],
      "name": "productService",
      "outputs": [
        {
          "name": "",
          "type": "address"
        }
      ],
      "payable": false,
      "stateMutability": "view",
      "type": "function"
    },
    {
      "constant": false,
      "inputs": [
        {
          "name": "_role",
          "type": "bytes32"
        }
      ],
      "name": "createRole",
      "outputs": [],
      "payable": false,
      "stateMutability": "nonpayable",
      "type": "function"
    },
    {
      "constant": true,
      "inputs": [],
      "name": "developmentMode",
      "outputs": [
        {
          "name": "",
          "type": "bool"
        }
      ],
      "payable": false,
      "stateMutability": "view",
      "type": "function"
    },
    {
      "constant": false,
      "inputs": [
        {
          "name": "newOwner",
          "type": "address"
        }
      ],
      "name": "transferOwnership",
      "outputs": [],
      "payable": false,
      "stateMutability": "nonpayable",
      "type": "function"
    },
    {
      "constant": false,
      "inputs": [
        {
          "name": "_address",
          "type": "address"
        }
      ],
      "name": "cleanRolesForAccount",
      "outputs": [],
      "payable": false,
      "stateMutability": "nonpayable",
      "type": "function"
    },
    {
      "inputs": [
        {
          "name": "_productService",
          "type": "address"
        }
      ],
      "payable": false,
      "stateMutability": "nonpayable",
      "type": "constructor"
    },
    {
      "anonymous": false,
      "inputs": [
        {
          "indexed": false,
          "name": "applicationId",
          "type": "uint256"
        }
      ],
      "name": "LogRequestUnderwriter",
      "type": "event"
    },
    {
      "anonymous": false,
      "inputs": [
        {
          "indexed": false,
          "name": "applicationId",
          "type": "uint256"
        },
        {
          "indexed": false,
          "name": "policyId",
          "type": "uint256"
        }
      ],
      "name": "LogApplicationUnderwritten",
      "type": "event"
    },
    {
      "anonymous": false,
      "inputs": [
        {
          "indexed": false,
          "name": "applicationId",
          "type": "uint256"
        }
      ],
      "name": "LogApplicationDeclined",
      "type": "event"
    },
    {
      "anonymous": false,
      "inputs": [
        {
          "indexed": false,
          "name": "policyId",
          "type": "uint256"
        },
        {
          "indexed": false,
          "name": "claimId",
          "type": "uint256"
        }
      ],
      "name": "LogRequestClaimsManager",
      "type": "event"
    },
    {
      "anonymous": false,
      "inputs": [
        {
          "indexed": false,
          "name": "claimId",
          "type": "uint256"
        }
      ],
      "name": "LogClaimDeclined",
      "type": "event"
    },
    {
      "anonymous": false,
      "inputs": [
        {
          "indexed": false,
          "name": "payoutId",
          "type": "uint256"
        }
      ],
      "name": "LogRequestPayout",
      "type": "event"
    },
    {
      "anonymous": false,
      "inputs": [
        {
          "indexed": false,
          "name": "claimId",
          "type": "uint256"
        },
        {
          "indexed": false,
          "name": "amount",
          "type": "uint256"
        }
      ],
      "name": "LogPayout",
      "type": "event"
    },
    {
      "anonymous": false,
      "inputs": [
        {
          "indexed": true,
          "name": "previousOwner",
          "type": "address"
        },
        {
          "indexed": true,
          "name": "newOwner",
          "type": "address"
        }
      ],
      "name": "OwnershipTransferred",
      "type": "event"
    },
    {
      "constant": true,
      "inputs": [
        {
          "name": "_price",
          "type": "uint256"
        }
      ],
      "name": "getQuote",
      "outputs": [
        {
          "name": "_premium",
          "type": "uint256"
        }
      ],
      "payable": false,
      "stateMutability": "pure",
      "type": "function"
    },
    {
      "constant": false,
      "inputs": [
        {
          "name": "_crop",
          "type": "bytes32"
        },
        {
          "name": "_wsid",
          "type": "bytes32"
        },
        {
          "name": "_year",
          "type": "uint256"
        },
        {
          "name": "_price",
          "type": "uint256"
        },
        {
          "name": "_premium",
          "type": "uint256"
        },
        {
          "name": "_currency",
          "type": "bytes32"
        },
        {
          "name": "_bpExternalKey",
          "type": "bytes32"
        }
      ],
      "name": "applyForPolicy",
      "outputs": [],
      "payable": false,
      "stateMutability": "nonpayable",
      "type": "function"
    },
    {
      "constant": false,
      "inputs": [
        {
          "name": "_applicationId",
          "type": "uint256"
        }
      ],
      "name": "underwriteApplication",
      "outputs": [],
      "payable": false,
      "stateMutability": "nonpayable",
      "type": "function"
    },
    {
      "constant": false,
      "inputs": [
        {
          "name": "_applicationId",
          "type": "uint256"
        }
      ],
      "name": "declineApplication",
      "outputs": [],
      "payable": false,
      "stateMutability": "nonpayable",
      "type": "function"
    },
    {
      "constant": false,
      "inputs": [
        {
          "name": "_policyId",
          "type": "uint256"
        }
      ],
      "name": "createClaim",
      "outputs": [],
      "payable": false,
      "stateMutability": "nonpayable",
      "type": "function"
    },
    {
      "constant": false,
      "inputs": [
        {
          "name": "_applicationId",
          "type": "uint256"
        },
        {
          "name": "_claimId",
          "type": "uint256"
        }
      ],
      "name": "confirmClaim",
      "outputs": [],
      "payable": false,
      "stateMutability": "nonpayable",
      "type": "function"
    },
    {
      "constant": false,
      "inputs": [
        {
          "name": "_claimId",
          "type": "uint256"
        },
        {
          "name": "_amount",
          "type": "uint256"
        }
      ],
      "name": "confirmPayout",
      "outputs": [],
      "payable": false,
      "stateMutability": "nonpayable",
      "type": "function"
    }
  ],
  "bytecode": "0x60806040526003805460a060020a61ffff021916905534801561002157600080fd5b5060405160208061138a8339810180604052602081101561004157600080fd5b5051807f43726f70496e737572616e6365000000000000000000000000000000000000007f506f6c696379466c6f7744656661756c7400000000000000000000000000000061009764010000000061011a810204565b60038054600160a060020a031916600160a060020a0392831617908190556040519116906000907f8be0079c531659141344cd1fd0a4f28419497f9722a3daafe3b4186f6b6457e0908290a360048054600160a060020a031916600160a060020a038516179055610111828264010000000061011e810204565b505050506101ba565b3390565b60048054604080517f2f9267320000000000000000000000000000000000000000000000000000000081529283018590526024830184905251600160a060020a0390911691632f9267329160448083019260209291908290030181600087803b15801561018a57600080fd5b505af115801561019e573d6000803e3d6000fd5b505050506040513d60208110156101b457600080fd5b50505050565b6111c1806101c96000396000f3fe608060405234801561001057600080fd5b5060043610610175576000357c0100000000000000000000000000000000000000000000000000000000900480638da5cb5b116100e0578063c37d45bf11610099578063c37d45bf146103bf578063c42994a2146103c7578063cf39918e146103e4578063d6fcaf4014610401578063f2fde38b14610409578063f566e10e1461042f57610175565b80638da5cb5b146103165780638f32d59b1461033a5780639535665114610342578063a3f4df7e1461035f578063ac4ab3fb14610367578063c2e867351461039357610175565b80635ecdaffb116101325780635ecdaffb146102535780636afa4340146102705780636b6201da14610293578063715018a6146102b05780637f66ae95146102b85780638993021b146102db57610175565b806301e882081461017a57806309128d83146101b25780630baa3930146101ba57806325dce0a6146101fd5780632cf88d9e1461021957806347ece1f314610236575b600080fd5b6101a06004803603602081101561019057600080fd5b5035600160a060020a0316610455565b60408051918252519081900360200190f35b6101a0610467565b6101fb600480360360e08110156101d057600080fd5b5080359060208101359060408101359060608101359060808101359060a08101359060c0013561048b565b005b61020561063d565b604080519115158252519081900360200190f35b6101a06004803603602081101561022f57600080fd5b503561065f565b6101fb6004803603602081101561024c57600080fd5b503561067e565b6101fb6004803603602081101561026957600080fd5b50356106bd565b6101fb6004803603604081101561028657600080fd5b508035906020013561070a565b6101fb600480360360208110156102a957600080fd5b5035610778565b6101fb6107c5565b6101fb600480360360408110156102ce57600080fd5b508035906020013561087a565b6102f8600480360360208110156102f157600080fd5b50356108c4565b60408051938452602084019290925282820152519081900360600190f35b61031e6108e5565b60408051600160a060020a039092168252519081900360200190f35b6102056108f4565b6101a06004803603602081101561035857600080fd5b503561091a565b6101a061092c565b6102056004803603604081101561037d57600080fd5b50600160a060020a038135169060200135610950565b6101fb600480360360408110156103a957600080fd5b50600160a060020a03813516906020013561097c565b61031e6109c3565b6101fb600480360360208110156103dd57600080fd5b50356109d2565b6101a0600480360360208110156103fa57600080fd5b5035610a35565b610205610aa5565b6101fb6004803603602081101561041f57600080fd5b5035600160a060020a0316610ac6565b6101fb6004803603602081101561044557600080fd5b5035600160a060020a0316610b30565b60026020526000908152604090205481565b7f506f6c696379466c6f7744656661756c7400000000000000000000000000000081565b600083116104e3576040805160e560020a62461bcd02815260206004820152601560248201527f4552524f523a494e56414c49445f5052454d49554d0000000000000000000000604482015290519081900360640190fd5b826104ed85610a35565b14610542576040805160e560020a62461bcd02815260206004820152601660248201527f4552524f523a3a494e56414c49445f5052454d49554d00000000000000000000604482015290519081900360640190fd5b6040805160208082018a905281830189905260608083018990528351808403820181526080840180865281519184019190912060e0850186528c825260a085018c815260c09095018b8152600082815260059095529386902091518255935160018083019190915592516002909101558351828152808501909452919290816020016020820280388339019050509050858160008151811015156105e257fe5b6020908102909101015260006105fa84878785610b4a565b6040805182815290519192507f5c47c05249d6f929140d05a766a5f2ae514f58554ab3b2af7a28d95ad8f33f60919081900360200190a150505050505050505050565b6003547501000000000000000000000000000000000000000000900460ff1681565b600180548290811061066d57fe5b600091825260209091200154905081565b61068781610c40565b6040805182815290517fb4517efb3658a9157a120e7f848fcf5fd353bb30f829b0c8dd438f80f516a2809181900360200190a150565b60006106c882610cbf565b604080518481526020810183905281519293507f81933ecb74cf9161fdbb58ee5a6fa61e1f141eb182cc5fb4984e2f95eda82500929081900390910190a15050565b606061071583610d58565b9050600061073b8383600081518110151561072c57fe5b90602001906020020151610e50565b6040805182815290519192507f01743795564e01e7d8b30c49755f49a1d1d334160fd48c3ccbb30179f0230dee919081900360200190a150505050565b600061078382610ef1565b604080518481526020810183905281519293507fc5c47f872068c0c66f29dc9ba79e827f87d5208d59920be499135ee5a51a50fd929081900390910190a15050565b6107cd6108f4565b1515610823576040805160e560020a62461bcd02815260206004820181905260248201527f4f776e61626c653a2063616c6c6572206973206e6f7420746865206f776e6572604482015290519081900360640190fd5b600354604051600091600160a060020a0316907f8be0079c531659141344cd1fd0a4f28419497f9722a3daafe3b4186f6b6457e0908390a36003805473ffffffffffffffffffffffffffffffffffffffff19169055565b6108848282610f58565b50604080518381526020810183905281517f96bf8a4b3935559e490ffd37c839f248d423006820ba5c1372eda8e5a5ef2821929181900390910190a15050565b60056020526000908152604090208054600182015460029092015490919083565b600354600160a060020a031690565b600354600090600160a060020a031661090b610fc6565b600160a060020a031614905090565b60006020819052908152604090205481565b7f43726f70496e737572616e63650000000000000000000000000000000000000081565b60009081526020818152604080832054600160a060020a03909416835260029091528120549091161190565b600081815260208190526040902054151561099657600080fd5b60009081526020818152604080832054600160a060020a0390941683526002909152902080549091179055565b600454600160a060020a031681565b600081815260208190526040902054156109eb57600080fd5b60018054600083815260208190526040812060029290920a909155815480830183559190527fb10e2d527612073b26eecdfd717e6a320cf44b4afac2b0732d9fcbe2b7fa0cf60155565b6000808211610a8e576040805160e560020a62461bcd02815260206004820152601460248201527f4552524f523a3a494e56414c4944205052494345000000000000000000000000604482015290519081900360640190fd5b610a9f82600a63ffffffff610fca16565b92915050565b60035474010000000000000000000000000000000000000000900460ff1681565b610ace6108f4565b1515610b24576040805160e560020a62461bcd02815260206004820181905260248201527f4f776e61626c653a2063616c6c6572206973206e6f7420746865206f776e6572604482015290519081900360640190fd5b610b2d81611013565b50565b600160a060020a0316600090815260026020526040812055565b600480546040517fdc3addf00000000000000000000000000000000000000000000000000000000081529182018681526024830186905260448301859052608060648401908152845160848501528451600094600160a060020a039094169363dc3addf0938a938a938a938a93929160a490910190602080860191028083838e5b83811015610be3578181015183820152602001610bcb565b5050505090500195505050505050602060405180830381600087803b158015610c0b57600080fd5b505af1158015610c1f573d6000803e3d6000fd5b505050506040513d6020811015610c3557600080fd5b505195945050505050565b60048054604080517fa0355f4e00000000000000000000000000000000000000000000000000000000815292830184905251600160a060020a039091169163a0355f4e91602480830192600092919082900301818387803b158015610ca457600080fd5b505af1158015610cb8573d6000803e3d6000fd5b5050505050565b60048054604080517f6be60f8b00000000000000000000000000000000000000000000000000000000815292830184905251600092600160a060020a0390921691636be60f8b91602480830192602092919082900301818787803b158015610d2657600080fd5b505af1158015610d3a573d6000803e3d6000fd5b505050506040513d6020811015610d5057600080fd5b505192915050565b60048054604080517f450d512e00000000000000000000000000000000000000000000000000000000815292830184905251606092600160a060020a039092169163450d512e91602480830192600092919082900301818387803b158015610dbf57600080fd5b505af1158015610dd3573d6000803e3d6000fd5b505050506040513d6000823e601f3d908101601f191682016040526020811015610dfc57600080fd5b810190808051640100000000811115610e1457600080fd5b82016020810184811115610e2757600080fd5b8151856020820283011164010000000082111715610e4457600080fd5b50909695505050505050565b60048054604080517f6afa43400000000000000000000000000000000000000000000000000000000081529283018590526024830184905251600092600160a060020a0390921691636afa434091604480830192602092919082900301818787803b158015610ebe57600080fd5b505af1158015610ed2573d6000803e3d6000fd5b505050506040513d6020811015610ee857600080fd5b50519392505050565b60048054604080517f54f3a32c00000000000000000000000000000000000000000000000000000000815292830184905251600092600160a060020a03909216916354f3a32c91602480830192602092919082900301818787803b158015610d2657600080fd5b60048054604080517f5aa6cf970000000000000000000000000000000000000000000000000000000081529283018590526024830184905251600092600160a060020a0390921691635aa6cf9791604480830192602092919082900301818787803b158015610ebe57600080fd5b3390565b600061100c83836040805190810160405280601a81526020017f536166654d6174683a206469766973696f6e206279207a65726f0000000000008152506110c6565b9392505050565b600160a060020a038116151561105d5760405160e560020a62461bcd0281526004018080602001828103825260268152602001806111706026913960400191505060405180910390fd5b600354604051600160a060020a038084169216907f8be0079c531659141344cd1fd0a4f28419497f9722a3daafe3b4186f6b6457e090600090a36003805473ffffffffffffffffffffffffffffffffffffffff1916600160a060020a0392909216919091179055565b6000818184116111575760405160e560020a62461bcd0281526004018080602001828103825283818151815260200191508051906020019080838360005b8381101561111c578181015183820152602001611104565b50505050905090810190601f1680156111495780820380516001836020036101000a031916815260200191505b509250505060405180910390fd5b506000838581151561116557fe5b049594505050505056fe4f776e61626c653a206e6577206f776e657220697320746865207a65726f2061646472657373a165627a7a723058206ae91c572aafcd39c76e58adf3be2cc0271b4f106b607b7486e1fb8f13f88a310029",
  "source": "pragma solidity 0.5.2;\n\nimport \"@etherisc/gif/contracts/Product.sol\";\n\ncontract CropInsurance is Product {\n\n    event LogRequestUnderwriter(uint256 applicationId);\n    event LogApplicationUnderwritten(uint256 applicationId, uint256 policyId);\n    event LogApplicationDeclined(uint256 applicationId);\n    event LogRequestClaimsManager(uint256 policyId, uint256 claimId);\n    event LogClaimDeclined(uint256 claimId);\n    event LogRequestPayout(uint256 payoutId);\n    event LogPayout(uint256 claimId, uint256 amount);\n\n    bytes32 public constant NAME = \"CropInsurance\";\n    bytes32 public constant POLICY_FLOW = \"PolicyFlowDefault\";\n\n    struct Risk {\n        bytes32 crop;\n        bytes32 wsid;\n        uint256 year;\n    }\n\n    mapping(bytes32 => Risk) public risks;\n\n    constructor(address _productService)\n        public Product(_productService, NAME, POLICY_FLOW) {}\n\n    function getQuote(uint256 _price) public pure returns (uint256 _premium) {\n        require(_price > 0, \"ERROR::INVALID PRICE\");\n        _premium = _price.div(10);\n    }\n\n    function applyForPolicy(\n        bytes32 _crop,\n        bytes32 _wsid,\n        uint256 _year,\n        uint256 _price,\n        uint256 _premium,\n        bytes32 _currency,\n        bytes32 _bpExternalKey\n    )external onlySandbox {\n        require(_premium > 0, \"ERROR:INVALID_PREMIUM\");\n        require(getQuote(_price) == _premium, \"ERROR::INVALID_PREMIUM\");\n\n        bytes32 riskId = keccak256(abi.encodePacked(_crop, _wsid, _year));\n        risks[riskId] = Risk(_crop, _wsid, _year);\n\n        uint256[] memory payoutOptions = new uint256[](1);\n        payoutOptions[0] = _price;\n\n        uint256 applicationId = _newApplication(_bpExternalKey, _premium, _currency, payoutOptions);\n\n        emit LogRequestUnderwriter(applicationId);\n    }\n\n    function underwriteApplication(uint256 _applicationId) external onlySandbox {\n        uint256 policyId = _underwrite(_applicationId);\n        emit LogApplicationUnderwritten(_applicationId, policyId);\n    }\n\n    function declineApplication(uint256 _applicationId) external onlySandbox {\n        _decline(_applicationId);\n        emit LogApplicationDeclined(_applicationId);\n    }\n\n    function createClaim(uint256 _policyId) external onlySandbox {\n        uint256 claimId = _newClaim(_policyId);\n        emit LogRequestClaimsManager(_policyId, claimId);\n    }\n\n    function confirmClaim(uint256 _applicationId, uint256 _claimId) external onlySandbox {\n        uint256[] memory payoutOptions = _getPayoutOptions(_applicationId);\n        uint256 payoutId = _confirmClaim(_claimId, payoutOptions[0]);\n        emit LogRequestPayout(payoutId);\n    }\n\n    function confirmPayout(uint256 _claimId, uint256 _amount) external onlySandbox {\n        _payout(_claimId, _amount);\n        emit LogPayout(_claimId, _amount);\n    }\n\n}\n",
  "sourcePath": "/Users/danielperondi/Documents/PhD-ABE/Courses/2019-Fall/CIS6930/Project/System/crop-insurance/contracts/CropInsurance.sol",
  "compiler": {
    "name": "solc",
    "version": "0.5.2+commit.1df8f40c.Emscripten.clang"
  },
  "schemaVersion": "3.0.19",
  "updatedAt": "2019-12-04T15:36:06.533Z",
  "networkType": "ethereum",
  "devdoc": {
    "methods": {
      "isOwner()": {
        "details": "Returns true if the caller is the current owner."
      },
      "owner()": {
        "details": "Returns the address of the current owner."
      },
      "renounceOwnership()": {
        "details": "Leaves the contract without owner. It will not be possible to call `onlyOwner` functions anymore. Can only be called by the current owner.     * NOTE: Renouncing ownership will leave the contract without an owner, thereby removing any functionality that is only available to the owner."
      },
      "transferOwnership(address)": {
        "details": "Transfers ownership of the contract to a new account (`newOwner`). Can only be called by the current owner."
      }
    }
  },
  "userdoc": {
    "methods": {}
  }
}